:020000040800F2
:1000000000080020D9010008DF010008E301000812
:1000100000000000000000000000000000000000E0
:1000200000000000000000000000000019020008AD
:1000300000000000000000001D020008210200086E
:100040009505000895050008950500089505000828
:100050009505000895050008950500089505000818
:1000600000000000950500089505000895050008AA
:10007000950500089505000800000000950500089A
:100080000000000000000000000000000000000070
:10009000950500080000000000000000950500081C
:1000A00000000000950500080000000000000000AE
:1000B00095050008950500080000000000000000FC
:1000C00030B583B000F01AFA314B324A1360324A2D
:1000D0001360324B324A03E0116819600433043272
:1000E00030498B42F8D32B4B1A682F4B9A4200D0E1
:1000F000FEE7294B1A682D4B9A42F9D1244B2C4A22
:1001000013602C4A13602C4B02E000221A60043367
:100110002A4A9342F9D3264B1B68002B03D1254B67
:100120001B68002B00D0FEE700F0ECF9694601A83F
:1001300000F018F9224B234CE41AA4100025AC421D
:1001400014DC214B214CE41AA4100025AC4213DC32
:100150000099019801F040F805001D4B1D4CE41A70
:10016000A410002C0EDC280000F096F8AA00144B16
:10017000D35898470135E2E7AA00134BD358984764
:100180000135E3E7013CA200114BD3589847E8E75B
:10019000BABADECA00000020D8010020000000200A
:1001A000781E0008DC01002078563412325476980C
:1001B000DC01002098030020DC0100209C030020CB
:1001C00050020008500200085002000850020008C7
:1001D000500200085002000810B5FFF771FF00BE82
:1001E000FEE704207146084202D0EFF3098001E0E7
:1001F000EFF3088071460B4A104770B504000D00FC
:10020000044800F031F92900200000F07FF900BE19
:10021000FEE7C046A41C000800BEFEE700BEFEE7E5
:0802200070470000FB0100081B
:10022800781E000800000020DC010020781E00086D
:100238000000001000000010DC0100209C030020DA
:0802480000000010000000108E
:1002500010B503000D4A1268002A0BD00B4A106833
:10026000033303229343C318094A934206D8074A2B
:10027000136010BD0749054A1160EFE701F04EF821
:100280000C23036001204042F3E7C046E001002058
:10029000000400209C03002030B5002806D1044D46
:1002A0001824201C291CABBE041CFEE7014DF7E7F7
:1002B0002600020023000200F0B5C64600B584B057
:1002C000234F01AC01970326A6600023636001253C
:1002D000281C211CABBE80461E4B42461A6001976B
:1002E000A66004236360281C211CABBE80461A4B09
:1002F00042461A600197A66008236360281C211CEF
:10030000ABBE041C154B1C60631C01D000230AE02B
:10031000114B1A68114B1A60F8E7D90001204042CE
:100320000F4A88500133132BF7DD0D4B094A126831
:100330001A6000225A60084909689960DA60074922
:10034000096819615A6104B004BC9046F0BDC0460A
:10035000F01B000860020020640200205C02002004
:1003600068020020F0B5DE4657464E464546E0B5E9
:1003700085B083468A4602AC394B02934F230393E0
:100380001527381C211CABBE071C3B1E01974DD105
:1003900000214F33324AD154029DB946B84618E085
:1003A00000F0C2FF00190123C356002B25DB092EE4
:1003B00021D04346002B0BD1082F38DC222E1ED033
:1003C000272E1CD0BA00274BD55001370123984661
:1003D000013500242C57261E29D04346002BDFD0A0
:1003E0004B46002B0ED0B145F2D100232B70019A61
:1003F00091469046ECE70123DCE70123DAE701357B
:10040000A146DFE700F090FF04190123E356002B1B
:100410000ADB092E06D04B46002BD9D000232B70C7
:10042000C846D5E74346F7E74346F5E70027002FE0
:1004300005D10B4B00221A700A4A13600137094B91
:10044000BA000021D1505A46176052461360FFF798
:1004500033FF05B03CBC90469946A246AB46F0BD82
:10046000E4010020340200200FB400B583B004ABD7
:1004700004CB01938021064801F01CF8002803DD1D
:100480000100034800F036F803B008BC04B0184778
:1004900008030020F0B5C64600B586B004000191FF
:1004A0004356002B01D0019F1CE00426301C211C68
:1004B000ABBE041C019806B004BC9046F0BD0022FF
:1004C000A25602A9CA5401330134B342F7D302AA97
:1004D000904600224146CA540425281C4146ABBE22
:1004E0008046BF1B002FE5D03E00102F00D91026FC
:1004F0000023EAE710B5FFF7CDFF10BD10B500F0FF
:100500004BF810BD10B500F075F810BD70B50400C3
:100510000D001548FFF7A8FF21681448FFF7A4FF56
:1005200061681348FFF7A0FFA1681248FFF79CFF1E
:10053000E1681148FFF798FF21691048FFF794FF21
:1005400061690F48FFF790FFA1690E48FFF78CFF24
:10055000E1690D48FFF788FF0C48FFF785FF290088
:100560000B48FFF781FF70BDF41B0008041C000856
:10057000141C0008241C0008341C0008441C00083B
:10058000541C0008641C0008741C0008841C00082B
:100590008C1C0008FEE70000104B196880225200F6
:1005A0000A431A60DA680E490A40DA601A680D498F
:1005B0000A401A609A6801218A439A601A680A49B7
:1005C0000A401A60DA6809490A40DA6000221A61B2
:1005D00080221205064B9A607047C0460010024008
:1005E0000C40FF88F6FFF6FEFFFFFBFFFFFF02FF58
:1005F00000ED00E010B52B4BDA680C231340042B00
:1006000034D019D9082B35D00C2B3ED1254BD868C6
:10061000D968800C0F2202402348845C8A0D032194
:1006200011400131DB68DB0328D42048604300F02F
:10063000E9FD1F4B18600DE0002B26D1194B5A68BD
:10064000520B072313400133802212029A401300F9
:10065000174A1360134BDA6812090F231340154A27
:10066000D35C134A1168D940116010BD0F4A104B7A
:100670001A60EFE7104A0E4B1A60EBE70E48604332
:1006800000F0C0FD0A4B1860E4E7064B5A68520BB5
:10069000072313400133802212029A401300044AB8
:1006A0001360D7E700100240C41C00080024F400C7
:1006B00004000020B41C000800127A0010B50400E9
:1006C000074B1868FA21890000F09CFD00F052F8F1
:1006D000002221000120404200F01AF8002010BD45
:1006E0000400002010B5064A136802210B43136072
:1006F0000320FFF7E3FF00F02DF9002010BDC046F6
:1007000000200240014B18687047C0469403002047
:1007100070B5002811DB8308144DC0339B005C5971
:1007200003221040C000FC3216008640B443890109
:100730000A40824022435A5170BDC0B20F23034089
:10074000083B9B0806339B00094A944663445D6856
:1007500003221040C000FF242200824095438901FB
:100760000C4084402C435C60E6E7C04600E100E0BA
:1007700000ED00E001380A4B98420FD8094A50605A
:100780000948036A1B021B0AC02109060B430362C6
:100790000023936007331360002070470120FCE7BB
:1007A000FFFFFF0010E000E000ED00E0042805D0AE
:1007B000054A136804218B4313607047024A13688B
:1007C00004210B431360F8E710E000E0F0B5C646E3
:1007D00000B5002388E0DF080837BF003E58072532
:1007E0001D40AD000F22AA4096430A69AA40150099
:1007F00035433D5088E085685F000326BE40B54321
:10080000CE68BE40354385604568A5432C004A68E4
:100810001609012535409D402C43446005685E0063
:1008200003242700B740FF433D404A681440B440CA
:100830002C430460C4683C408D68B5402C43C460C0
:100840004A68D2004FD53B4D6C6B012634436C6334
:100850009C08A51CAD00384EAE5903251D40AD00C7
:100860000F27AF40BE43A027FF05B8425AD0334FF1
:10087000B84259D0324FB84252D00627AF403D005F
:1008800035430234A4002C4EA5512E4C2568424617
:10089000D44326002E404A68D20302D5424615436F
:1008A0002E00284D2E606D682E0026404A68920367
:1008B00002D5424615432E00224D6E60AD682E00D3
:1008C00026404A68D20202D5424615432E001D4DED
:1008D000AE60ED682C404A68920202D542462A4337
:1008E0001400184AD46001330A681400DC401DD09B
:1008F00001249C4022409046F5D04D68022D00D145
:1009000069E7122D00D166E74D686E1E012E00D8F2
:1009100071E7112D00D16EE7122D00D07EE76AE756
:100920000227ABE70027A9E70127A7E704BC904609
:10093000F0BDC0460010024000000140000400501D
:100940000008005000040140002A01D18162704774
:100950008161FCE77047000030B51B4BDB68F0227B
:10096000134022D1184A926BD2000ED5174A126852
:10097000C02149010A40C02149018A4216D1C02242
:100980001202904212D1012310E00F498C6B802299
:10099000520522438A630D4A1268C0246401224032
:1009A0008C6B0B4D2C408C63E5E7002309480268F3
:1009B00001218A431A430260026811408B4201D030
:1009C000012030BD0020FCE7001002400070004014
:1009D000FFFFFFEF0020024070B582B00400036803
:1009E000DB0740D5BA4BDA680C231340082B32D012
:1009F000B74BDA680C2313400C2B28D06368802295
:100A00005202934257D0A022D20293425AD0B04B06
:100A10001A68B0490A401A601A68802149020A40DF
:100A20000192019A1A68AC490A401A606368002B67
:100A300054D0FFF767FE0500A54B1B689B0312D43B
:100A4000FFF760FE401B6428F6D903202CE2A04B80
:100A5000DB68DB03D2D59E4B1B689B0303D5636821
:100A6000002B00D119E223689B075AD5984BDA680E
:100A70000C231340042B43D0954BDA680C2313400E
:100A80000C2B39D0E368002B00D1ADE090490A6807
:100A90000920824313430B60FFF734FE05008C4BA3
:100AA0001B685B0700D596E0FFF72CFE401B022871
:100AB000F5D90320F8E1864A116880235B020B43D5
:100AC0001360B3E7824B19688022D2020A431A608E
:100AD0001968802252020A431A60A7E7FFF712FE44
:100AE00005007B4B1B689B03BDD5FFF70BFE401B2E
:100AF0006428F6D90320D7E1754BDB68DB03C1D44A
:100B0000734B1B685B0704D5E368012B01D0012000
:100B1000CAE16F494B68714A1340226912021343BC
:100B20004B602368DB063BD5694BDB680C221A421D
:100B300000D080E0664B1B689B0503D5A369002BA2
:100B400000D1ACE1206A624B5B68E02212021340E4
:100B500098425CD9FFF700FF002800D0A1E15C4A71
:100B600053685F490B40216A0B43536053681B0273
:100B70001B0AE16909060B435360236A5A0B0132D1
:100B800080231B029340524AD16809090F220A4070
:100B900054498A5CD340544A13600320FFF78EFD0A
:100BA00023681B0700D4A3E06369002B7CD0484A6C
:100BB000136D01210B431365FFF7A4FD0500444BA2
:100BC0001B6D9B0700D593E0FFF79CFD401B02289F
:100BD000F5D9032068E13E494B68404A1340226939
:100BE000120213434B609CE7394A136801218B437F
:100BF0001360FFF787FD0500354B1B685B0790D539
:100C0000FFF780FD401B0228F6D903204CE1304A53
:100C1000536833490B401843506053681B021B0A4A
:100C2000E16909060B435360206AFFF795FE00282F
:100C3000A3D0012038E1A369002B22D0244A1168F7
:100C400080235B000B431360FFF75CFD0500204B26
:100C50001B689B0506D4FFF755FD401B0228F6D9FB
:100C6000032021E11A4A53681D490B40216A0B43B6
:100C7000536053681B021B0AE16909060B4353606A
:100C80008EE7134A136819490B401360FFF73AFDCA
:100C900005000F4B1B689B0582D5FFF733FD401BFA
:100CA0000228F6D90320FFE0094A136D01218B4386
:100CB0001365FFF727FD0500054B1B6D9B0717D537
:100CC000FFF720FD401B0228F6D90320ECE0C046C8
:100CD00000100240FFFFFEFFFFFFFBFFFFE0FFFFF2
:100CE000FF1FFFFFB41C000804000020FFFEFFFFF1
:100CF00023685B0778D56E4B9B6BDB002CD46C4A6A
:100D0000916B80235B050B4393630125694B1B6843
:100D1000DB0523D5A36880225200934232D0002BFA
:100D200037D1634B1A6D64490A401A651A6D6349DD
:100D30000A401A65A368002B45D0FFF7E3FC0600C4
:100D40005B4B1B6D9B054DD4FFF7DCFC801B5C4BA4
:100D50009842F5D90320A7E00025D7E7554A116846
:100D600080235B000B431360FFF7CCFC0600514B64
:100D70001B68DB05CED4FFF7C5FC801B6428F6D9C1
:100D8000032091E04A4A116D80235B000B431365F9
:100D9000D0E7A022D200934209D0454B1A6D4649B4
:100DA0000A401A651A6D45490A401A65C2E7404B68
:100DB000196D013AFF3A0A431A65196D80225200F3
:100DC0000A431A65B6E7FFF79DFC0600384B1B6D1A
:100DD0009B0507D5FFF796FC801B394B9842F5D948
:100DE000032061E0012D1DD0636A002B5BD0304AE7
:100DF000D1680C220A400C2A58D0022B18D02C4A59
:100E0000136830490B401360FFF77CFC0400284B4B
:100E10001B689B013FD5FFF775FC001B0228F6D924
:100E2000032041E0224A936B27490B409363DBE7A1
:100E30001F4A136823490B401360FFF763FC05004A
:100E40001B4B1B689B0106D5FFF75CFC401B02286F
:100E5000F6D9032028E01649CB681C4A1340A26A41
:100E6000E06A0243206B02431343CB600A6880238D
:100E70005B0413430B60FFF745FC04000C4B1B683D
:100E80009B0106D4FFF73EFC001B0228F6D9032085
:100E90000AE0002008E0002006E0012004E0012034
:100EA00002E0012000E0002002B070BD0120FBE75D
:100EB0000010024000700040FFFEFFFFFFFBFFFF3D
:100EC00088130000FFFFFFFEFFFFFFEFFFFF02FFA1
:100ED00010B51F4BD9680C230B40082B33D00C2BBB
:100EE00011D0042B09D01A4B5A68520B0723134018
:100EF000013380200002984010BD154B1B68DB06B3
:100F000023D51448F8E78A0C0F231340124AD05C0B
:100F1000890D0323194001310D4BDB68DB0308D435
:100F20000B4B1B68DB0609D50A4B584300F06AF9E6
:100F3000E2E70A4B584300F065F9DDE7084B5843F8
:100F400000F060F9D8E70548D6E70548D4E7C04681
:100F50000010024000093D00C41C000800127A0085
:100F60000024F40070B504000D005F4B1A680123E3
:100F700013408B420BD25C490B68012293432B43F5
:100F80000B600B681A40954201D00120A8E023684D
:100F90009B0706D5554AD368F0218B43A1680B43C4
:100FA000D3602368DB0764D56368022B25D0032B4D
:100FB00029D0012B2DD04D4A1268920500D490E023
:100FC0004A49CA68032082431343CB60FFF79AFB68
:100FD00006006368022B22D0032B2ED0012B3AD0BF
:100FE000424BDB680C221A4243D0FFF78BFB801B7D
:100FF0003F4B9842F4D9032072E03C4A12689203B6
:10100000DED401206CE0394A12689201D8D4012064
:1010100066E0364A12685207D2D4012060E0334BB2
:10102000DA680C231340082B23D0FFF76BFB801BDF
:101030002F4B9842F3D9032052E02C4BDA680C2353
:1010400013400C2B15D0FFF75DFB801B284B9842FB
:10105000F3D9032044E0254BDA680C231340042B1A
:1010600007D0FFF74FFB801B214B9842F3D9032099
:1010700036E01D4B1A68012313409D420BD21A49DA
:101080000B68012293432B430B600B681A40954277
:1010900001D0012024E023685B0706D5134AD368FA
:1010A00014490B40E1680B43D36023681B0707D545
:1010B0000E49CB68104A13402269D2001343CB601B
:1010C000FFF706FF094BDA6812090F2313400B4A9A
:1010D000D35CD8400A4B18600320FFF7EFFA0020DA
:1010E00070BD0120FCE7C046002002400010024015
:1010F00088130000FFF8FFFFFFC7FFFFB41C0008C4
:1011000004000020014B18687047C046040000200E
:1011100030B593B017490B68174A1A4080231B015A
:1011200013430B6002230593012508950E330993A1
:1011300000240E9405A8FFF74FFC0F2300930195A0
:1011400002940394049400216846FFF70BFFFFF715
:10115000D9FFFA21890000F055F8FFF70BFB0420B6
:10116000FFF724FB0022002101204042FFF7D0FAC4
:1011700013B030BD00700040FFE7FFFF30B589B00D
:10118000114BD96A04221143D962D96A0A400192EB
:10119000019ADA6A01242243DA62DB6A234002936D
:1011A000029BA025ED05002210212800FFF7CCFBB3
:1011B00010230393049400230593069303A92800A6
:1011C000FFF704FB09B030BD0010024010B5FFF777
:1011D0009FFFFFF7D3FF10BD10B5FFF783FAFFF7AE
:1011E000F5FF002404E00133044A9342FBDD01349F
:1011F00021000348FFF738F90023F5E73F4B4C0087
:10120000D01C0008002243088B4274D303098B4290
:101210005FD3030A8B4244D3030B8B4228D3030CC6
:101220008B420DD3FF22090212BA030C8B4202D368
:101230001212090265D0030B8B4219D300E0090A90
:10124000C30B8B4201D3CB03C01A5241830B8B4299
:1012500001D38B03C01A5241430B8B4201D34B0382
:10126000C01A5241030B8B4201D30B03C01A5241E7
:10127000C30A8B4201D3CB02C01A5241830A8B426C
:1012800001D38B02C01A5241430A8B4201D34B0255
:10129000C01A5241030A8B4201D30B02C01A5241B9
:1012A000CDD2C3098B4201D3CB01C01A524183096D
:1012B0008B4201D38B01C01A524143098B4201D3A7
:1012C0004B01C01A524103098B4201D30B01C01AD2
:1012D0005241C3088B4201D3CB00C01A524183084C
:1012E0008B4201D38B00C01A524143088B4201D379
:1012F0004B00C01A5241411A00D2014652411046D9
:101300007047FFE701B5002000F006F802BDC046B7
:101310000029F7D076E770477047C046014B186840
:101320007047C04608000020044B1B681B6A002B56
:1013300000D1034BEC3318687047C046080000200A
:101340006C00002082B0002900D101A9101E06D037
:10135000002B06D013780B601078431E984102B022
:10136000704702204042FAE7002310B59A4200D1AC
:1013700010BDCC5CC4540133F8E70000032370B502
:10138000CD1C9D43083506000C2D1ED20C25A9420C
:101390001DD8300000F0A6F8254A14682100002965
:1013A00019D1244C2368002B03D1300000F044F8FD
:1013B00020602900300000F03FF8431C2CD10C23A2
:1013C0003000336000F08FF803E0002DDFDA0C23EB
:1013D0003360002070BD0B685B1B1AD40B2B03D944
:1013E0000B60CC18256003E08C420ED1636813605B
:1013F000300000F078F8200007220B30231D9043C6
:10140000C31AE7D05A42E250E4E74B6863600C002D
:10141000EEE70C004968C2E70323C41C9C43A042CA
:10142000E0D0211A300000F007F8431CDAD1C6E7FB
:10143000880300208C030020002370B5064C0500B3
:1014400008002360FEF704FF431C03D12368002B30
:1014500000D02B6070BDC0469003002030B5140052
:101460009BB005001A00002C05DA8B2303600120D5
:1014700040421BB030BD822368469B00838100231D
:10148000009104919C4200D0631E029305930123B6
:1014900069465B42CB8128001E9B00F0D1F8431CBB
:1014A00001DA8B232B60002CE3D00023009A137009
:1014B000DFE7000007B5009313000A0001000248AF
:1014C0000068FFF7CBFF0EBD080000200B1E04D004
:1014D000FF2A04D98A2303608B3B180070470A70E7
:1014E0000123FAE77047704770B50500002910D056
:1014F0000C1F2368002B00DAE4182800FFF7F2FF26
:101500001D4A1368002B05D1636014602800FFF7A3
:10151000EAFF70BDA34209D9216860188342F3D164
:1015200018685B6841182160EEE713005A68002ACA
:1015300001D0A242F9D919685818A0420BD12068ED
:101540000918581819608242E0D110685268411891
:1015500019605A60DAE7A04202D90C232B60D5E764
:1015600021686018824203D11068526841182160D6
:1015700062605C60CAE7C04688030020F0B58E68F0
:1015800085B007000C00039201939E4239D8902346
:101590008A89DB001A4234D00325096923685B1A63
:1015A0000293636902985D43EB0F5D19019B6D1017
:1015B00001331B18AB4200D91D00530532D5290059
:1015C0003800FFF7DBFE061E09D10C233B604023E9
:1015D0000120A28940421343A38105B0F0BD029AC5
:1015E0002169FFF7C1FEA389144A1A4080231343DF
:1015F000A381029B2661F61826606561019EED1AA3
:10160000A560019BB34200D21E00320003992068FE
:1016100000F0ADFAA36800209B1BA36023689E190D
:101620002660DAE72A00380000F0B3FA061EE0D19F
:1016300021693800FFF758FFC7E7C0467FFBFFFF6F
:10164000F0B59FB0029005938B890F0016001B0622
:1016500011D50B69002B0ED14021FFF78FFE3860AA
:101660003861002805D10C23029A013813601FB09D
:10167000F0BD40237B61002306AD6B6120336B76A8
:101680001033AB7634002378002B47D1A31B04938F
:101690000DD0A31B320039000298FFF76FFF431CE7
:1016A00000D1B5E06A69049B944663446B6123787A
:1016B000002B00D1ACE00122002352426A6002A953
:1016C0005432521801342B60EB60AB601370AB6581
:1016D000584E05222178300000F03EFA621C0028A6
:1016E00020D12968CB0604D5532302AE20309B19A4
:1016F00018700B0704D553232B2002AE9B191870CA
:1017000023782A2B16D000200A21099B2278303A10
:10171000092A55D9002815D0099313E0252BB5D0F7
:101720000134B0E70123801B8340296814000B4378
:101730002B60CDE7059B181D1B680590002B39DB3E
:101740000993140023782E2B0BD16378621C2A2B6B
:101750003ED1059B02341A1D1B680592002B34DB19
:101760000793354E21780322300000F0F5F9002868
:1017700006D04023801B83402A68013413432B602A
:10178000217806222D48661C297600F0E5F900280C
:1017900046D02B4B002B2FD12968059B0722C9056A
:1017A00028D59B189343083305936B69039A9B18BC
:1017B0006B6167E75B42EB6002230B432B60C0E782
:1017C0004B4301349B180120A0E701235B42C7E78C
:1017D000002314000A201A006B602178303909298F
:1017E00003D9002BBDD00792BBE742430134521806
:1017F0000123F2E70733D5E705AB00933A00114B1D
:101800002900029800E000BF0390039B0133CCD174
:10181000BB890B985B0600D429E70120404226E7EC
:1018200005AB00933A00074B2900029800F07AF8C4
:10183000EAE7C046431E0008491E00084D1E000886
:10184000000000007D150008F7B5150001938A68B7
:101850000B6900900C00934200DA130022002B6009
:1018600043321278002A01D001332B6023689B0693
:1018700002D52B6802332B60062723681F4027D030
:10188000230043331B785A1E93412268920630D4BA
:101890002200019943320098089EB047431C25D08E
:1018A000062320682A68E16803400025042B03D141
:1018B0008D1AEB43DB171D40A3682269934201DDBB
:1018C0009B1AED180027BD4220D1002010E00137FF
:1018D000E3682A689B1A9F42D2DA22000123193258
:1018E00001990098089EB047431CF0D10120404266
:1018F000FEBD3020E1184331087021005A1C4531EB
:101900000978A218433202331170C1E72200012383
:101910001A3201990098089EB047431CE6D001375F
:10192000D1E70000F0B58BB006920A00433207936E
:10193000059004920A7E0C00109B6E2A00D18FE065
:1019400017D8632A2CD008D8002A00D199E0582A49
:1019500054D026004236327029E0642A01D0692A28
:10196000F7D121681A68080623D5111D196015687A
:1019700025E0732A00D188E008D86F2A29D0702A80
:10198000E7D1202209680A43226003E0752A20D0AB
:10199000782ADED122007821453211706C4A30E07D
:1019A0000E001A684236111D196013683370012346
:1019B00079E04906D9D5111D19600023D55E002DA7
:1019C00003DA2D23049A6D421370624B0A270393A6
:1019D0002FE020681968050603D5081D18600D68FA
:1019E00005E04006F9D50D68081D1860ADB2594BE9
:1019F000082703936F2A18D00A2716E045310A708A
:101A0000544A03921A682168101D18601568080668
:101A100022D5CB0702D52023194321601027002DA2
:101A200003D1202322689A432260230000224333FB
:101A30001A706368A360002B5CDB04222168914369
:101A40002160002D58D1049E002B64D02600039BFA
:101A500042361B7833705EE04806DAD5ADB2D8E77F
:101A600009681A68080605D5111D196013686269AE
:101A70001A6006E04906F7D5111D19601368A28A9D
:101A80001A800023049E236154E01A68111D196016
:101A9000166800216268300000F05EF8002801D06E
:101AA000801B6060636823610023049A137041E027
:101AB0002369320006990598079DA847431C43D027
:101AC000236800259B070FD4099BE06898423DDA04
:101AD00018003BE022000123193206990598079E61
:101AE000B047431C30D00135E368099A9B1A9D42E8
:101AF000F0DBE9E7002DA9D0049E28003900FFF7AC
:101B000007FC039B013E5B5C280033703900FFF744
:101B100079FB051EF1D1082F09D12368DB0706D513
:101B200063682269934202DC3023013E3370049BD8
:101B30009B1B2361079B09AA00932100069B059824
:101B4000FFF782FE431CB3D1012040420BB0F0BD31
:101B5000651E0008541E0008C9B28218904201D1C7
:101B60000020704703788B42FBD00130F6E710B5B8
:101B7000884202D98B18984208D300239A4207D092
:101B8000CC5CC4540133F9E78B5C8354013AFBD23B
:101B900010BDF8B507000D001600002905D1110091
:101BA000FFF7ECFB04002000F8BD002A03D1FFF78B
:101BB0009BFC3400F7E700F012F82C008642F2D9C3
:101BC00031003800FFF7DAFB041EECD029003200A8
:101BD000FFF7CAFB29003800FFF786FCE3E70B1F7D
:101BE0001B68181F002B01DA0B58C0187047000043
:101BF0003A747400537461636B206672616D653A68
:101C00000A000000205230203D2020253038580A9C
:101C100000000000205231203D2020253038580A95
:101C200000000000205232203D2020253038580A84
:101C300000000000205233203D2020253038580A73
:101C40000000000020523132203D20253038580A53
:101C500000000000204C52203D2020253038580A3A
:101C600000000000205043203D2020253038580A35
:101C70000000000020505352203D20253038580AE3
:101C8000000000004D6973630A000000204C522FD1
:101C90004558435F52455455524E3D2025303858E3
:101CA0000A0000005B486172644661756C745D0AED
:101CB000000000000000000000000000010203041A
:101CC00006070809030406080C101820300000005D
:101CD00069203D2025640A0000000000000000008B
:101CE00000000000000000000000000000000000F4
:101CF00000000000000000000000000000000000E4
:101D000000000000000000000000000000000000D3
:101D100000000000000000000000000000000000C3
:101D200000000000000000000000000000000000B3
:101D300000000000000000004300504F53495800CD
:101D40002E000020202020202020202028282828A5
:101D5000282020202020202020202020202020207B
:101D600020202088101010101010101010101010CB
:101D700010101004040404040404040404101010DB
:101D80001010101041414141414101010101010187
:101D90000101010101010101010101010101101015
:101DA000101010104242424242420202020202025B
:101DB00002020202020202020202020202021010E7
:101DC00010102000000000000000000000000000D3
:101DD0000000000000000000000000000000000003
:101DE00000000000000000000000000000000000F3
:101DF00000000000000000000000000000000000E3
:101E000000000000000000000000000000000000D2
:101E100000000000000000000000000000000000C2
:101E200000000000000000000000000000000000B2
:101E300000000000000000000000000000000000A2
:101E4000000000232D302B2000686C4C0065666775
:101E50004546470030313233343536373839414220
:101E600043444546003031323334353637383961F2
:061E700062636465660078
:101E78007856341280841E000C00002000000000F8
:101E8800F81C0008181D0008D81C000800000000F5
:101E9800000000000000000000000000000000003A
:101EA800000000000000000000000000000000002A
:101EB800000000000000000000000000000000001A
:101EC800000000000000000000000000000000000A
:101ED80000000000000000000000000043000000B7
:101EE80000000000000000000000000000000000EA
:101EF8000000000000000000000000004300000097
:101F080000000000000000000000000000000000C9
:101F18000000000000000000000000004300000076
:101F280000000000000000000000000000000000A9
:101F38000000000000000000000000004300000056
:101F48000000000000000000000000000000000089
:101F58000000000000000000000000004300000036
:101F68000000000000000000000000000000000069
:101F78000000000000000000000000004300000016
:101F88000000000000000000000000000000000049
:101F980000000000000000000000000043000000F6
:101FA8000000000000000000000000000000000029
:101FB800000000000000000000000000CD14000830
:101FC8004513000800000000421D0008401D0008DD
:101FD800481E0008481E0008481E0008481E000841
:101FE800481E0008481E0008481E0008481E000831
:101FF800481E0008FFFFFFFFFFFFFFFFFFFFFFFF77
:10200800FFFF000001004153434949000000000060
:1020180000000000000000000000000000000000B8
:10202800000000000000415343494900000000003F
:102038000000000000000000000000000000000098
:0C204800000000000000000032547698F8
:04000005080000C12E
:00000001FF
